:020000020000FC
:1000000044E04EBF4FE54DBF4FEF44BB4FEF41BB08
:1000100049D044275AE010D0442745E50DD0F9CF08
:100020004F935F934FEF5FEF4A9519F05A95D9F3CD
:10003000FDCF5F914F9108954F934FEF44BB4F9188
:10004000503071F0AD981CD0AC9A1AD052BB18D079
:10005000AC9816D0AD9A48E013D04A95E9F7AD9820
:10006000403049F0AD9A0CD0AC9A0AD042BB08D0CF
:10007000AC9806D0AD9804D040E044BB40E045BB0E
:100080004F935F936F9350E040E8642F6A95462F3B
:100090004030E1F7503011F05A95F6CF6F915F91F3
:1000A0004F9108954F935F93BBDFBADF4CE342BBA0
:1000B000B7DF4CE342BBB4DF4CE342BBB1DF48E304
:1000C00042BB48E042BB41E042BB45E05F914F91FB
:0200D000089591
:00000001FF
