:020000020000FC
:100000000C94C5040C942A000C942A000C942A0029
:100010000C942B000C942A000C942A000C942A00B7
:100020000C942A000C94E6000C942A000C942A00EC
:100030000C942A000C942A000C942A000C942A0098
:100040000C942A000C942A000C942A000C942A0088
:100050000C942A0018957F932F93AF93BF93CF935F
:10006000DF93EF93FF930F931F930FB70F93AE9808
:10007000AF9809EE04BDA0917500B0917600109183
:10008000800012FD3EC010917B0015FD3AC037FF85
:1000900008C035FD06C000917B0006FD01C0119629
:1000A00030620091790020917A00A017B20789F49C
:1000B0000027009375000093760000918000046093
:1000C000077F009380000091830004600093830009
:1000D00018C0C0918400D0918500AC17BD0749F4C9
:1000E00004E620E0C00FD21F10918300116010932E
:1000F0008300C0938400D0938500A0937500B093D3
:10010000760000D1D9D10091830002FD16D4009170
:100110006000009366000091610000936700009109
:1001200062000093680000916300009369000091F1
:10013000640000936A0000916500039500936500D8
:10014000053009F4002700936500B0E0A6E600C082
:10015000F8940F93002703950F3FE9F70F917894D8
:10016000AB98F8940F93002703950F3FE9F70F9191
:1001700078940F93A00F0027B01F0F911C911BBB09
:10018000A89AA8980BBBAB9A1FEF1A95F1F7A0E7B6
:10019000B0E0A00F0027B01F0C9115B302FB16F9B9
:1001A00003FB17F915BB16B310FB00F911FB01F99E
:1001B0000C930F910FBF1F910F91FF91EF91DF9162
:1001C000CF91BF91AF912F917F9118957F932F93EE
:1001D000AF93BF93CF93DF93EF93FF930F931F934F
:1001E0000FB70F93F8941091800012FD7DC010910D
:1001F0007B0015FD79C0AA9A4395423049F4AA982C
:100200004427019600917C0020917D000817290762
:10021000D1F530FD39C01091800011FF05C0146088
:100220001093800090D160C01091800010FD09C033
:1002300000E000937D000FE000937C0012601093BB
:100240008000A9983160882799273F771091830013
:1002500010FF10C0A0917C00B0917D00E2E8F0E0BA
:10026000AE0FBF1FA0937C00B0937D001E7F126075
:10027000109383000091800005FF36C004600F7D5D
:10028000077F0093800030C000917F0007FF0BC004
:10029000209181007091820020937C0070937D00FA
:1002A0000F7700937F00A99A3E7F882799273068AF
:1002B0003F7D1091830011FF0FC0A0917C00B09191
:1002C0007D00E2E8F0E0AE1BBF0BA0937C00B09392
:1002D0007D001D7F109383000091800004FF04C007
:1002E00000620F7E0093800078940F910FBF1F91E2
:1002F0000F91FF91EF91DF91CF91BF91AF912F912E
:100300007F9118950F931F932F93CF93DF9300271F
:10031000009360000093610000936200009363000B
:100320000093640000938900009390000093910073
:1003300020E018E9D6E9C0E8AC17BD07E107F207ED
:1003400050F0AC1BBD0BE10BF20B0091910003953B
:1003500000939100F1CF20E01FE0D2E4C0E4AC179D
:10036000BD07E107F20750F0AC1BBD0BE10BF20B30
:1003700000919000039500939000F1CF20E011E0F0
:10038000D6E8C0EAAC17BD07E107F20750F0AC1B96
:10039000BD0BE10BF20B00918900039500938900DE
:1003A000F1CF20E010E0D7E2C0E1AC17BD07E107D4
:1003B000F20750F0AC1BBD0BE10BF20B0091640097
:1003C000039500936400F1CF20E010E0D3E0C8EE85
:1003D000AC17BD07E107F20750F0AC1BBD0BE10BFA
:1003E000F20B00916300039500936300F1CF20E0CE
:1003F00010E0D0E0C4E6AC17BD07E107F20750F00B
:10040000AC1BBD0BE10BF20B009162000395009356
:100410006200F1CF20E010E0D0E0CAE0AC17BD07E9
:10042000E107F20750F0AC1BBD0BE10BF20B0091A2
:100430006100039500936100F1CF20E010E0D0E06F
:10044000C1E0AC17BD07E107F20750F0AC1BBD0BD4
:10045000E10BF20B00916000039500936000F1CF77
:10046000DF91CF912F911F910F910895003011F4DA
:1004700000EC0895013011F409EF0895023011F4F1
:1004800004EA0895033011F400EB0895043011F4E8
:1004900009E90895053011F402E90895063011F4D0
:1004A00002E80895073011F408EF0895083011F4B8
:1004B00000E8089500E908950F9300916000D6DFE9
:1004C0000093600000916100D1DF00936100009112
:1004D0006200CCDF0093620000916300C7DF0093ED
:1004E000630000916400C2DF009364000091890002
:1004F000BDDF0093890000919000B8DF0093900069
:1005000000919100B3DF009391000F91089500E0F6
:1005100007BB03E008BB0FEF0ABB00E00BBB0FEF0C
:1005200004BB00E005BB0FEF01BB00E002BB06E02F
:10053000A89505E409BF03E003BFA89501E00EBD3F
:1005400007E005BD0895F894E199FECF10E000E0C2
:100550000FBB1EBBE09A2DB3E199FECF11E000E086
:100560000FBB1EBBE09A0DB300937A002093790075
:10057000E199FECF12E000E00FBB1EBBE09A2DB365
:10058000E199FECF13E000E00FBB1EBBE09A0DB374
:1005900000937D0020937C002093810000938200D3
:1005A0000091790020917A0014EF71E0011727077C
:1005B00039F40ED1109170001460109370001FC0B8
:1005C00018EE73E00117270739F402D1109171007A
:1005D00014601093710013C018E873E10117270726
:1005E00039F4F6D01091720014601093720007C0B5
:1005F000EFD01091730014601093730000C000914D
:100600007C0020917D0014EB70E00117270739F47E
:1006100012D1109170001860109370001FC016EE78
:1006200070E00117270739F406D1109171001860A6
:100630001093710013C018E171E00117270739F416
:10064000FAD01091720018601093720007C0F3D0B6
:100650001091730018601093730000C0789408958F
:10066000F8947F932F93AF93BF93CF93DF93EF9340
:10067000FF930F931F930FB70F93E199FECF00E005
:1006800020E02FBB0EBBADBBE29AE19AE199FECF11
:1006900001E020E02FBB0EBBBDBBE29AE19A0F91B7
:1006A0000FBF1F910F91FF91EF91DF91CF91BF91FC
:1006B000AF912F917F9178940895F8947F932F9321
:1006C000AF93BF93CF93DF93EF93FF930F931F935A
:1006D0000FB70F93E199FECF02E020E02FBB0EBBD6
:1006E000ADBBE29AE19AE199FECF03E020E02FBB97
:1006F0000EBBBDBBE29AE19A0F910FBF1F910F9104
:10070000FF91EF91DF91CF91BF91AF912F917F91A9
:1007100078940895112722275527662777270027E1
:10072000CC27DD27AA27BB27CC27DD27EE27FF27ED
:100730008827992744273327009365000093660094
:1007400000936700009368000093690000936A00BB
:1007500000936B0000936C0000936D0000936E009B
:1007600000936F00002700936000009361000093E6
:10077000620000936300009364000093760000938E
:100780007500009380000093790000937A00009335
:100790007B0000937F0003E00093700000937100E2
:1007A00000937200009373000093740000917B002B
:1007B000006400937B0004EF21E000937C00209311
:1007C0007D0004E620E000938400209385000895D6
:1007D0007F932F93AF93BF93CF93DF93EF93FF93C9
:1007E0000F931F930FB70F93F89470917000706080
:1007F0007B7F709370007091710070607B7F70934D
:1008000071007091720070607B7F709372007091C4
:10081000730070607B7F7093730078940F910FBFAB
:100820001F910F91FF91EF91DF91CF91BF91AF9108
:100830002F917F9108957F932F93AF93BF93CF9381
:10084000DF93EF93FF930F931F930FB70F93F894DA
:10085000709170007160777F70937000709171007B
:100860007160777F70937100709172007160777F13
:1008700070937200709173007160777F7093730052
:1008800078940F910FBF1F910F91FF91EF91DF911E
:10089000CF91BF91AF912F917F910895002711279C
:1008A000A0917000B0910000A0FB00F9100FA09182
:1008B0007100B0910000A0FB00F9100FA091720030
:1008C000B0910000A0FB00F9100FA0917300B0914F
:1008D0000000A0FB00F9100F143009F405C013301C
:1008E00009F402C0386001C0377F11270027A091AA
:1008F0007000B0910000A1FB00F9100FA0917100F1
:10090000B0910000A1FB00F9100FA0917200B0910E
:100910000000A1FB00F9100FA0917300B09100003E
:10092000A1FB00F9100F143009F405C0133009F4CD
:1009300002C0306101C03F7E08957F932F93AF9333
:10094000BF93CF93DF93EF93FF930F931F930FB753
:100950000F930FEF0093600006E8009361000BEA2D
:100960000093620000EC0093630001EA00936400CE
:100970000F910FBF1F910F91FF91EF91DF91CF91D9
:10098000BF91AF912F917F9108950FE50DBF04E0C6
:100990000EBFBDDDBFDED7DDF89480DF789433FD78
:1009A000BCC07091700070FF01C018C020917B0026
:1009B00020FD19C00DDF74607E7FA4EFB1E0A0932D
:1009C0007900B0937A001127109375001093760088
:1009D0000027016000937B0043DE05C000917B008F
:1009E0000E7F00937B00709370007091710070FF18
:1009F00001C018C020917B0021FD19C0E9DE7460A0
:100A00007E7FA8EEB3E0A0937900B0937A0011271F
:100A100010937500109376000027026000937B000E
:100A20001FDE05C000917B000D7F00937B0070935B
:100A300071007091720070FF01C017C020917B009F
:100A400022FD18C0C5DE74607E7FA8E8B3E1A093E4
:100A50007900B0937A0011271093750010937600F7
:100A6000246020937B00FCDD05C020917B002B7F60
:100A700020937B00709372007091730070FF01C02F
:100A800017C020917B0023FD18C0A2DE74607E7F1A
:100A9000A0E1B7E2A0937900B0937A0011271093F8
:100AA000750010937600286020937B00D9DD05C087
:100AB00020917B00277F20937B007093730010911F
:100AC000830014FD2AC07091740070FF01C01EC025
:100AD0007E7F20917B0024FD1EC025FF01C008C041
:100AE00074602062009183000860009383000AC054
:100AF0007B7F2F7D20937B0000918300077F0093F5
:100B0000830000C0206120937B0005C020917B0002
:100B10002F7E20937B007093740034FDB4C07091DD
:100B2000700071FF01C013C020917F0020FD14C030
:100B300082DE78607D7FA4EBB0E0A0938100B0936B
:100B400082002160206820937F00B7DD05C02091DE
:100B50007F002E7F20937F00709370007091710052
:100B600071FF01C013C020917F0021FD14C063DE1E
:100B700078607D7FA6EEB0E0A0938100B093820004
:100B80002068226020937F0098DD05C020917F00BF
:100B90002D7F20937F00709371007091720071FF20
:100BA00001C013C020917F0022FD14C044DE786094
:100BB0007D7FA8E1B1E0A0938100B093820020681E
:100BC000246020937F0079DD05C020917F002B7F7A
:100BD00020937F00709372001091830013FD20C05A
:100BE0007091730071FF01C014C020917F0023FD3C
:100BF00015C078607D7F28600091830000610093BC
:100C000083000091800000610093800020937F00AA
:100C100005C020917F00277F20937F007093730091
:100C20001091800013FD2FC07091740071FF01C0FE
:100C300023C078607D7F20917F0024FD22C01B7F30
:100C40001D7F1860116010938000109183001F7E3B
:100C50001093830070917300777F709373000091FD
:100C600083000B7F009383008827992700917B00E6
:100C70000F7B00937B0005C020917F002F7E209387
:080C80007F007093740088CE20
:00000001FF
