:020000020000FC
:1000000087C011C011C011C011C011C011C011C0F2
:1000100011C011C011C011C011C011C011C011C058
:1000200011C011C011C018951895189518951895FC
:100030001895189518951895189518951895189558
:10004000189518951895189518950FEF01BB04BBD6
:1000500008BB002702BB05BB07BB06E0A895F894C8
:1000600002E009BF01E003BF02E809BF01E00EBDE5
:1000700002E009BF01E005BD22270027CC27DD27CC
:10008000552766272227219658EE63E0C517D60725
:10009000D1F7CC27DD2723952E31A9F708E368D0C7
:1000A0002227CC27DD2755276627219658EE63E0C7
:1000B000C517D607D1F7CC27DD2723952530A9F71B
:1000C00008E356D02227CC27DD275527662721961F
:1000D00058EE63E0C517D607D1F708E349D02227C9
:1000E000CC27DD275527662708E342D00FE040D014
:1000F00001E03ED006E03CD0219658EE63E0C51703
:10010000D607D1F7CC27DD2723952E31A9F70895FF
:10011000F8940FE50DBF04E00EBF3CD096DF01E080
:10012000006826D001E62DD00BE0006821D002E661
:1001300028D001E100681CD003E623D005E1006867
:1001400017D004E61ED000E4006812D005E619D0EE
:1001500001E400680DD00BE214D002E4006808D07E
:100160000BE20FD003E4006803D00BE20AD0FFCF0C
:10017000AD9810D0AC9A0ED002BB0CD0AC980AD07F
:100180000895AD9A07D0AC9A05D002BB03D0AC98C5
:1001900001D008950F930FEF00000A95E9F70F9132
:1001A00008950F930FEFF6DF0A95E9F70F91089581
:00000001FF
